{
  "_format": "hh-sol-artifact-1",
  "contractName": "Signer",
  "sourceName": "contracts/Signer.sol",
  "abi": [
    {
      "inputs": [
        {
          "internalType": "string",
          "name": "_name",
          "type": "string"
        }
      ],
      "stateMutability": "nonpayable",
      "type": "constructor"
    },
    {
      "anonymous": false,
      "inputs": [
        {
          "indexed": true,
          "internalType": "address",
          "name": "previousOwner",
          "type": "address"
        },
        {
          "indexed": true,
          "internalType": "address",
          "name": "newOwner",
          "type": "address"
        }
      ],
      "name": "OwnershipTransferred",
      "type": "event"
    },
    {
      "anonymous": false,
      "inputs": [
        {
          "indexed": false,
          "internalType": "address",
          "name": "owner",
          "type": "address"
        },
        {
          "indexed": false,
          "internalType": "string",
          "name": "fileHash",
          "type": "string"
        },
        {
          "indexed": false,
          "internalType": "uint256",
          "name": "validTo",
          "type": "uint256"
        }
      ],
      "name": "createFile",
      "type": "event"
    },
    {
      "anonymous": false,
      "inputs": [
        {
          "indexed": false,
          "internalType": "address",
          "name": "owner",
          "type": "address"
        },
        {
          "indexed": false,
          "internalType": "uint256",
          "name": "timestamp",
          "type": "uint256"
        }
      ],
      "name": "userUnverification",
      "type": "event"
    },
    {
      "anonymous": false,
      "inputs": [
        {
          "indexed": false,
          "internalType": "address",
          "name": "owner",
          "type": "address"
        },
        {
          "indexed": false,
          "internalType": "uint256",
          "name": "timestamp",
          "type": "uint256"
        }
      ],
      "name": "userVerification",
      "type": "event"
    },
    {
      "anonymous": false,
      "inputs": [
        {
          "indexed": false,
          "internalType": "address",
          "name": "owner",
          "type": "address"
        },
        {
          "indexed": false,
          "internalType": "uint256",
          "name": "timestamp",
          "type": "uint256"
        }
      ],
      "name": "userVerificationRequest",
      "type": "event"
    },
    {
      "inputs": [
        {
          "internalType": "string",
          "name": "_hash",
          "type": "string"
        }
      ],
      "name": "getInformation",
      "outputs": [
        {
          "internalType": "address",
          "name": "",
          "type": "address"
        },
        {
          "internalType": "string",
          "name": "",
          "type": "string"
        },
        {
          "internalType": "string",
          "name": "",
          "type": "string"
        },
        {
          "internalType": "uint256",
          "name": "",
          "type": "uint256"
        },
        {
          "internalType": "uint256",
          "name": "",
          "type": "uint256"
        },
        {
          "internalType": "uint256",
          "name": "",
          "type": "uint256"
        },
        {
          "internalType": "bool",
          "name": "",
          "type": "bool"
        }
      ],
      "stateMutability": "view",
      "type": "function"
    },
    {
      "inputs": [
        {
          "internalType": "address",
          "name": "_owner",
          "type": "address"
        }
      ],
      "name": "getOwnerInformation",
      "outputs": [
        {
          "internalType": "address",
          "name": "",
          "type": "address"
        },
        {
          "internalType": "string",
          "name": "",
          "type": "string"
        },
        {
          "internalType": "bool",
          "name": "",
          "type": "bool"
        },
        {
          "internalType": "bool",
          "name": "",
          "type": "bool"
        }
      ],
      "stateMutability": "view",
      "type": "function"
    },
    {
      "inputs": [],
      "name": "owner",
      "outputs": [
        {
          "internalType": "address",
          "name": "",
          "type": "address"
        }
      ],
      "stateMutability": "view",
      "type": "function"
    },
    {
      "inputs": [],
      "name": "renounceOwnership",
      "outputs": [],
      "stateMutability": "nonpayable",
      "type": "function"
    },
    {
      "inputs": [
        {
          "internalType": "string",
          "name": "_name",
          "type": "string"
        }
      ],
      "name": "requestVerification",
      "outputs": [],
      "stateMutability": "nonpayable",
      "type": "function"
    },
    {
      "inputs": [
        {
          "internalType": "address",
          "name": "_newOwner",
          "type": "address"
        }
      ],
      "name": "transferOwner",
      "outputs": [],
      "stateMutability": "nonpayable",
      "type": "function"
    },
    {
      "inputs": [
        {
          "internalType": "address",
          "name": "newOwner",
          "type": "address"
        }
      ],
      "name": "transferOwnership",
      "outputs": [],
      "stateMutability": "nonpayable",
      "type": "function"
    },
    {
      "inputs": [
        {
          "internalType": "address",
          "name": "_owner",
          "type": "address"
        }
      ],
      "name": "unverify",
      "outputs": [],
      "stateMutability": "nonpayable",
      "type": "function"
    },
    {
      "inputs": [
        {
          "internalType": "string",
          "name": "_promotion",
          "type": "string"
        },
        {
          "internalType": "string",
          "name": "_fileHash",
          "type": "string"
        },
        {
          "internalType": "uint256",
          "name": "_validFrom",
          "type": "uint256"
        },
        {
          "internalType": "uint256",
          "name": "_validTo",
          "type": "uint256"
        }
      ],
      "name": "uploadFile",
      "outputs": [],
      "stateMutability": "nonpayable",
      "type": "function"
    },
    {
      "inputs": [
        {
          "internalType": "string",
          "name": "",
          "type": "string"
        }
      ],
      "name": "uploads",
      "outputs": [
        {
          "internalType": "address",
          "name": "owner",
          "type": "address"
        },
        {
          "internalType": "string",
          "name": "promotion",
          "type": "string"
        },
        {
          "internalType": "string",
          "name": "fileHash",
          "type": "string"
        },
        {
          "internalType": "uint256",
          "name": "validFrom",
          "type": "uint256"
        },
        {
          "internalType": "uint256",
          "name": "validTo",
          "type": "uint256"
        },
        {
          "internalType": "uint256",
          "name": "timestamp",
          "type": "uint256"
        },
        {
          "internalType": "bool",
          "name": "valid",
          "type": "bool"
        }
      ],
      "stateMutability": "view",
      "type": "function"
    },
    {
      "inputs": [
        {
          "internalType": "address",
          "name": "",
          "type": "address"
        }
      ],
      "name": "verified",
      "outputs": [
        {
          "internalType": "address",
          "name": "owner",
          "type": "address"
        },
        {
          "internalType": "string",
          "name": "name",
          "type": "string"
        },
        {
          "internalType": "bool",
          "name": "valid",
          "type": "bool"
        },
        {
          "internalType": "bool",
          "name": "requested",
          "type": "bool"
        }
      ],
      "stateMutability": "view",
      "type": "function"
    },
    {
      "inputs": [
        {
          "internalType": "address",
          "name": "_owner",
          "type": "address"
        }
      ],
      "name": "verify",
      "outputs": [],
      "stateMutability": "nonpayable",
      "type": "function"
    }
  ],
  "bytecode": "0x60806040523480156200001157600080fd5b5060405162001510380380620015108339810160408190526200003491620001be565b600080546001600160a01b031916339081178255604051909182917f8be0079c531659141344cd1fd0a4f28419497f9722a3daafe3b4186f6b6457e0908290a35060408051608081018252338082526020808301858152600184860181905260608501819052600093845280835294909220835181546001600160a01b0319166001600160a01b039091161781559151805193948594620000dd93918501929091019062000118565b5060408201516002909101805460609093015115156101000261ff00199215159290921661ffff199093169290921717905550620002e79050565b828054620001269062000294565b90600052602060002090601f0160209004810192826200014a576000855562000195565b82601f106200016557805160ff191683800117855562000195565b8280016001018555821562000195579182015b828111156200019557825182559160200191906001019062000178565b50620001a3929150620001a7565b5090565b5b80821115620001a35760008155600101620001a8565b60006020808385031215620001d1578182fd5b82516001600160401b0380821115620001e8578384fd5b818501915085601f830112620001fc578384fd5b815181811115620002115762000211620002d1565b604051601f8201601f19908116603f011681019083821181831017156200023c576200023c620002d1565b81604052828152888684870101111562000254578687fd5b8693505b8284101562000277578484018601518185018701529285019262000258565b828411156200028857868684830101525b98975050505050505050565b600181811c90821680620002a957607f821691505b60208210811415620002cb57634e487b7160e01b600052602260045260246000fd5b50919050565b634e487b7160e01b600052604160045260246000fd5b61121980620002f76000396000f3fe608060405234801561001057600080fd5b50600436106100b45760003560e01c80638da5cb5b116100715780638da5cb5b1461013b57806394e5abb014610156578063d005be781461017c578063e3f8adcd1461018f578063f2fde38b146101a2578063f9f482a4146101b557600080fd5b80630db065f4146100b95780634fb2e45d146100e557806353092aa1146100fa57806363a9c3d71461010d5780636cbff42a14610120578063715018a614610133575b600080fd5b6100cc6100c7366004610f3c565b6101c8565b6040516100dc949392919061105e565b60405180910390f35b6100f86100f3366004610f3c565b61028a565b005b6100cc610108366004610f3c565b6102be565b6100f861011b366004610f3c565b6103d3565b6100f861012e366004610f6a565b610540565b6100f8610675565b6000546040516001600160a01b0390911681526020016100dc565b610169610164366004610f6a565b6106e9565b6040516100dc979695949392919061109a565b6100f861018a366004610fa5565b61084d565b6100f861019d366004610f3c565b610a30565b6100f86101b0366004610f3c565b610b1e565b6101696101c3366004610f6a565b610c08565b6001602081905260009182526040909120805491810180546001600160a01b03909316926101f590611192565b80601f016020809104026020016040519081016040528092919081815260200182805461022190611192565b801561026e5780601f106102435761010080835404028352916020019161026e565b820191906000526020600020905b81548152906001019060200180831161025157829003601f168201915b5050506002909301549192505060ff8082169161010090041684565b33600090815260016020526040902080546001600160a01b0319166001600160a01b0383161790556102bb81610b1e565b50565b6001600160a01b0380821660009081526001602081815260408084208151608081019092528054909516815291840180549394606094869485948594919392908401919061030b90611192565b80601f016020809104026020016040519081016040528092919081815260200182805461033790611192565b80156103845780601f1061035957610100808354040283529160200191610384565b820191906000526020600020905b81548152906001019060200180831161036757829003601f168201915b50505091835250506002919091015460ff808216151560208085019190915261010090920416151560409283015282519083015191830151606090930151909991985091965090945092505050565b6000546001600160a01b031633146104065760405162461bcd60e51b81526004016103fd9061112d565b60405180910390fd5b6001600160a01b03811660009081526001602052604090206002015460ff161561046c5760405162461bcd60e51b815260206004820152601760248201527630b63932b0b23c9030903b32b934b334b2b2103ab9b2b960491b60448201526064016103fd565b6001600160a01b038116600090815260016020526040902060020154610100900460ff166104dc5760405162461bcd60e51b815260206004820152601760248201527f757365722068617665206e6f742072657175657374656400000000000000000060448201526064016103fd565b6001600160a01b038116600081815260016020818152604092839020600201805460ff1916909217909155815192835242908301527fcd4743f3b4972f83e8ca1945b40bb063d9c3b5851ed38b3bfba9d1ce211ebc7391015b60405180910390a150565b3360009081526001602052604090206002015460ff161561059d5760405162461bcd60e51b815260206004820152601760248201527630b63932b0b23c9030903b32b934b334b2b2103ab9b2b960491b60448201526064016103fd565b60408051608081018252338082526020808301858152600084860181905260016060860181905293815283835294909420835181546001600160a01b0319166001600160a01b039091161781559351805193948594909361060393908501920190610e1c565b50604082810151600292909201805460609094015161ffff1990941692151561ff001916929092176101009315159390930292909217905580513381524260208201527fb6797370bceb491f2ca916b8d2091d8e2fb376e16845c60f3077445fd31225e6910160405180910390a15050565b6000546001600160a01b0316331461069f5760405162461bcd60e51b81526004016103fd9061112d565b600080546040516001600160a01b03909116907f8be0079c531659141344cd1fd0a4f28419497f9722a3daafe3b4186f6b6457e0908390a3600080546001600160a01b0319169055565b8051602081830181018051600282529282019190930120915280546001820180546001600160a01b03909216929161072090611192565b80601f016020809104026020016040519081016040528092919081815260200182805461074c90611192565b80156107995780601f1061076e57610100808354040283529160200191610799565b820191906000526020600020905b81548152906001019060200180831161077c57829003601f168201915b5050505050908060020180546107ae90611192565b80601f01602080910402602001604051908101604052809291908181526020018280546107da90611192565b80156108275780601f106107fc57610100808354040283529160200191610827565b820191906000526020600020905b81548152906001019060200180831161080a57829003601f168201915b505050506003830154600484015460058501546006909501549394919390925060ff1687565b3360009081526001602052604090206002015460ff166108a55760405162461bcd60e51b81526020600482015260136024820152722737ba1030903b32b934b334b2b2103ab9b2b960691b60448201526064016103fd565b6002836040516108b59190611042565b9081526040519081900360200190206006015460ff161561090b5760405162461bcd60e51b815260206004820152601060248201526f105b1c9958591e481d5c1b1bd859195960821b60448201526064016103fd565b6040805160e0810182523381526020810186905280820185905260608101849052608081018390524260a0820152600160c082015290518190600290610952908790611042565b90815260405160209181900382019020825181546001600160a01b0319166001600160a01b03909116178155828201518051919261099892600185019290910190610e1c565b50604082015180516109b4916002840191602090910190610e1c565b50606082015160038201556080820151600482015560a0820151600582015560c0909101516006909101805460ff19169115159190911790556040517f71edfe28e1d49609400f6305588bd78e714723a6b8a13a9c357b8d27b570cc7f90610a21903390879086906110f9565b60405180910390a15050505050565b6000546001600160a01b03163314610a5a5760405162461bcd60e51b81526004016103fd9061112d565b6001600160a01b03811660009081526001602052604090206002015460ff16610ac55760405162461bcd60e51b815260206004820152601960248201527f616c7265616479206120756e766572696669656420757365720000000000000060448201526064016103fd565b6001600160a01b038116600081815260016020908152604091829020600201805460ff19169055815192835242908301527f2a7932c8578f94bc65ff02e4886300179743f1556f4f207b546a377bcef418bd9101610535565b6000546001600160a01b03163314610b485760405162461bcd60e51b81526004016103fd9061112d565b6001600160a01b038116610bad5760405162461bcd60e51b815260206004820152602660248201527f4f776e61626c653a206e6577206f776e657220697320746865207a65726f206160448201526564647265737360d01b60648201526084016103fd565b600080546040516001600160a01b03808516939216917f8be0079c531659141344cd1fd0a4f28419497f9722a3daafe3b4186f6b6457e091a3600080546001600160a01b0319166001600160a01b0392909216919091179055565b60006060806000806000806000600289604051610c259190611042565b90815260408051918290036020908101832060e0840190925281546001600160a01b0316835260018201805491840191610c5e90611192565b80601f0160208091040260200160405190810160405280929190818152602001828054610c8a90611192565b8015610cd75780601f10610cac57610100808354040283529160200191610cd7565b820191906000526020600020905b815481529060010190602001808311610cba57829003601f168201915b50505050508152602001600282018054610cf090611192565b80601f0160208091040260200160405190810160405280929190818152602001828054610d1c90611192565b8015610d695780601f10610d3e57610100808354040283529160200191610d69565b820191906000526020600020905b815481529060010190602001808311610d4c57829003601f168201915b505050918352505060038201546020820152600482015460408201526005820154606082015260069091015460ff16151560809091015260c0810151909150610de55760405162461bcd60e51b815260206004820152600e60248201526d119a5b19481b9bdd08199bdd5b9960921b60448201526064016103fd565b8051602082015160408301516060840151608085015160a086015160c090960151949e939d50919b50995097509195509350915050565b828054610e2890611192565b90600052602060002090601f016020900481019282610e4a5760008555610e90565b82601f10610e6357805160ff1916838001178555610e90565b82800160010185558215610e90579182015b82811115610e90578251825591602001919060010190610e75565b50610e9c929150610ea0565b5090565b5b80821115610e9c5760008155600101610ea1565b600082601f830112610ec5578081fd5b813567ffffffffffffffff80821115610ee057610ee06111cd565b604051601f8301601f19908116603f01168101908282118183101715610f0857610f086111cd565b81604052838152866020858801011115610f20578485fd5b8360208701602083013792830160200193909352509392505050565b600060208284031215610f4d578081fd5b81356001600160a01b0381168114610f63578182fd5b9392505050565b600060208284031215610f7b578081fd5b813567ffffffffffffffff811115610f91578182fd5b610f9d84828501610eb5565b949350505050565b60008060008060808587031215610fba578283fd5b843567ffffffffffffffff80821115610fd1578485fd5b610fdd88838901610eb5565b95506020870135915080821115610ff2578485fd5b50610fff87828801610eb5565b949794965050505060408301359260600135919050565b6000815180845261102e816020860160208601611162565b601f01601f19169290920160200192915050565b60008251611054818460208701611162565b9190910192915050565b6001600160a01b038516815260806020820181905260009061108290830186611016565b93151560408301525090151560609091015292915050565b6001600160a01b038816815260e0602082018190526000906110be90830189611016565b82810360408401526110d08189611016565b9150508560608301528460808301528360a083015282151560c083015298975050505050505050565b6001600160a01b038416815260606020820181905260009061111d90830185611016565b9050826040830152949350505050565b6020808252818101527f4f776e61626c653a2063616c6c6572206973206e6f7420746865206f776e6572604082015260600190565b60005b8381101561117d578181015183820152602001611165565b8381111561118c576000848401525b50505050565b600181811c908216806111a657607f821691505b602082108114156111c757634e487b7160e01b600052602260045260246000fd5b50919050565b634e487b7160e01b600052604160045260246000fdfea26469706673582212207eb12d94d722ad2b449cad421f0514d7b6dc32474d5872553cfe0ee222e024f164736f6c63430008040033",
  "linkReferences": {},
  "deployedLinkReferences": {}
}